{
  "_format": "hh-sol-artifact-1",
  "contractName": "Marketplace",
  "sourceName": "contracts/Marketplace.sol",
  "abi": [
    {
      "inputs": [
        {
          "internalType": "uint256",
          "name": "_feePercent",
          "type": "uint256"
        }
      ],
      "stateMutability": "nonpayable",
      "type": "constructor"
    },
    {
      "inputs": [],
      "name": "ReentrancyGuardReentrantCall",
      "type": "error"
    },
    {
      "anonymous": false,
      "inputs": [
        {
          "indexed": false,
          "internalType": "uint256",
          "name": "itemId",
          "type": "uint256"
        },
        {
          "indexed": true,
          "internalType": "address",
          "name": "nft",
          "type": "address"
        },
        {
          "indexed": false,
          "internalType": "uint256",
          "name": "tokenId",
          "type": "uint256"
        },
        {
          "indexed": false,
          "internalType": "uint256",
          "name": "price",
          "type": "uint256"
        },
        {
          "indexed": true,
          "internalType": "address",
          "name": "seller",
          "type": "address"
        },
        {
          "indexed": true,
          "internalType": "address",
          "name": "buyer",
          "type": "address"
        }
      ],
      "name": "Bought",
      "type": "event"
    },
    {
      "anonymous": false,
      "inputs": [
        {
          "indexed": false,
          "internalType": "uint256",
          "name": "exchangedItemId",
          "type": "uint256"
        },
        {
          "indexed": true,
          "internalType": "address",
          "name": "exchangedNft",
          "type": "address"
        },
        {
          "indexed": false,
          "internalType": "uint256",
          "name": "tokenId",
          "type": "uint256"
        },
        {
          "indexed": false,
          "internalType": "uint256[]",
          "name": "itemList",
          "type": "uint256[]"
        },
        {
          "indexed": true,
          "internalType": "address",
          "name": "owner",
          "type": "address"
        }
      ],
      "name": "Exchanged",
      "type": "event"
    },
    {
      "anonymous": false,
      "inputs": [
        {
          "indexed": false,
          "internalType": "uint256",
          "name": "itemId",
          "type": "uint256"
        },
        {
          "indexed": true,
          "internalType": "address",
          "name": "nft",
          "type": "address"
        },
        {
          "indexed": false,
          "internalType": "uint256",
          "name": "tokenId",
          "type": "uint256"
        },
        {
          "indexed": false,
          "internalType": "uint256",
          "name": "price",
          "type": "uint256"
        },
        {
          "indexed": true,
          "internalType": "address",
          "name": "seller",
          "type": "address"
        }
      ],
      "name": "Offered",
      "type": "event"
    },
    {
      "inputs": [
        {
          "internalType": "uint256[]",
          "name": "_itemlist",
          "type": "uint256[]"
        },
        {
          "internalType": "uint256",
          "name": "_exchangedItemId",
          "type": "uint256"
        }
      ],
      "name": "exchangeItem",
      "outputs": [],
      "stateMutability": "nonpayable",
      "type": "function"
    },
    {
      "inputs": [
        {
          "internalType": "uint256",
          "name": "",
          "type": "uint256"
        }
      ],
      "name": "exchangedItems",
      "outputs": [
        {
          "internalType": "uint256",
          "name": "itemId",
          "type": "uint256"
        },
        {
          "internalType": "contract IERC721",
          "name": "nft",
          "type": "address"
        },
        {
          "internalType": "uint256",
          "name": "tokenId",
          "type": "uint256"
        },
        {
          "internalType": "address payable",
          "name": "seller",
          "type": "address"
        },
        {
          "internalType": "bool",
          "name": "exchanged",
          "type": "bool"
        },
        {
          "internalType": "string",
          "name": "category",
          "type": "string"
        }
      ],
      "stateMutability": "view",
      "type": "function"
    },
    {
      "inputs": [],
      "name": "feeAccount",
      "outputs": [
        {
          "internalType": "address payable",
          "name": "",
          "type": "address"
        }
      ],
      "stateMutability": "view",
      "type": "function"
    },
    {
      "inputs": [],
      "name": "feePercent",
      "outputs": [
        {
          "internalType": "uint256",
          "name": "",
          "type": "uint256"
        }
      ],
      "stateMutability": "view",
      "type": "function"
    },
    {
      "inputs": [
        {
          "internalType": "uint256",
          "name": "_price",
          "type": "uint256"
        }
      ],
      "name": "getTotalPrice",
      "outputs": [
        {
          "internalType": "uint256",
          "name": "",
          "type": "uint256"
        }
      ],
      "stateMutability": "view",
      "type": "function"
    },
    {
      "inputs": [],
      "name": "itemCount",
      "outputs": [
        {
          "internalType": "uint256",
          "name": "",
          "type": "uint256"
        }
      ],
      "stateMutability": "view",
      "type": "function"
    },
    {
      "inputs": [
        {
          "internalType": "uint256",
          "name": "",
          "type": "uint256"
        }
      ],
      "name": "items",
      "outputs": [
        {
          "internalType": "uint256",
          "name": "itemId",
          "type": "uint256"
        },
        {
          "internalType": "contract IERC721",
          "name": "nft",
          "type": "address"
        },
        {
          "internalType": "uint256",
          "name": "tokenId",
          "type": "uint256"
        },
        {
          "internalType": "uint256",
          "name": "price",
          "type": "uint256"
        },
        {
          "internalType": "address payable",
          "name": "seller",
          "type": "address"
        },
        {
          "internalType": "bool",
          "name": "sold",
          "type": "bool"
        },
        {
          "internalType": "string",
          "name": "category",
          "type": "string"
        }
      ],
      "stateMutability": "view",
      "type": "function"
    },
    {
      "inputs": [
        {
          "internalType": "contract IERC721",
          "name": "_nft",
          "type": "address"
        },
        {
          "internalType": "uint256",
          "name": "_tokenId",
          "type": "uint256"
        },
        {
          "internalType": "uint256",
          "name": "_price",
          "type": "uint256"
        },
        {
          "internalType": "string",
          "name": "_category",
          "type": "string"
        }
      ],
      "name": "makeItem",
      "outputs": [],
      "stateMutability": "nonpayable",
      "type": "function"
    },
    {
      "inputs": [
        {
          "internalType": "contract IERC721",
          "name": "_nft",
          "type": "address"
        },
        {
          "internalType": "uint256",
          "name": "_tokenId",
          "type": "uint256"
        },
        {
          "internalType": "uint256",
          "name": "_price",
          "type": "uint256"
        },
        {
          "internalType": "string",
          "name": "_category",
          "type": "string"
        }
      ],
      "name": "makeSpecialItem",
      "outputs": [],
      "stateMutability": "nonpayable",
      "type": "function"
    },
    {
      "inputs": [],
      "name": "normalItemCount",
      "outputs": [
        {
          "internalType": "uint256",
          "name": "",
          "type": "uint256"
        }
      ],
      "stateMutability": "view",
      "type": "function"
    },
    {
      "inputs": [
        {
          "internalType": "uint256",
          "name": "_itemId",
          "type": "uint256"
        }
      ],
      "name": "purchaseItem",
      "outputs": [],
      "stateMutability": "payable",
      "type": "function"
    },
    {
      "inputs": [
        {
          "internalType": "uint256",
          "name": "itemId",
          "type": "uint256"
        }
      ],
      "name": "setSellerToZero",
      "outputs": [],
      "stateMutability": "nonpayable",
      "type": "function"
    },
    {
      "inputs": [],
      "name": "specialItemCount",
      "outputs": [
        {
          "internalType": "uint256",
          "name": "",
          "type": "uint256"
        }
      ],
      "stateMutability": "view",
      "type": "function"
    }
  ],
  "bytecode": "0x60c06040523480156200001157600080fd5b506040516200255a3803806200255a8339818101604052810190620000379190620000c2565b60016000819055503373ffffffffffffffffffffffffffffffffffffffff1660808173ffffffffffffffffffffffffffffffffffffffff16815250508060a0818152505050620000f4565b600080fd5b6000819050919050565b6200009c8162000087565b8114620000a857600080fd5b50565b600081519050620000bc8162000091565b92915050565b600060208284031215620000db57620000da62000082565b5b6000620000eb84828501620000ab565b91505092915050565b60805160a0516124326200012860003960008181610358015261069a015260008181610328015261096601526124326000f3fe6080604052600436106100c25760003560e01c8063bfb231d21161007f578063d38ea5bf11610059578063d38ea5bf14610270578063e2d984281461028c578063e4008437146102b5578063ef33d482146102de576100c2565b8063bfb231d2146101c7578063ca7dd3751461020a578063d1dc4ae714610247576100c2565b80630fd283f4146100c757806365e17c9d146100f25780636a79cd251461011d5780636bfb0d01146101485780637fd6f15c14610173578063babec98f1461019e575b600080fd5b3480156100d357600080fd5b506100dc610320565b6040516100e99190611415565b60405180910390f35b3480156100fe57600080fd5b50610107610326565b6040516101149190611471565b60405180910390f35b34801561012957600080fd5b5061013261034a565b60405161013f9190611415565b60405180910390f35b34801561015457600080fd5b5061015d610350565b60405161016a9190611415565b60405180910390f35b34801561017f57600080fd5b50610188610356565b6040516101959190611415565b60405180910390f35b3480156101aa57600080fd5b506101c560048036038101906101c09190611662565b61037a565b005b3480156101d357600080fd5b506101ee60048036038101906101e991906116e5565b61057d565b604051610201979695949392919061180b565b60405180910390f35b34801561021657600080fd5b50610231600480360381019061022c91906116e5565b610694565b60405161023e9190611415565b60405180910390f35b34801561025357600080fd5b5061026e600480360381019061026991906116e5565b6106e1565b005b61028a600480360381019061028591906116e5565b6107df565b005b34801561029857600080fd5b506102b360048036038101906102ae9190611949565b610b6b565b005b3480156102c157600080fd5b506102dc60048036038101906102d79190611662565b610fda565b005b3480156102ea57600080fd5b50610305600480360381019061030091906116e5565b61129b565b604051610317969594939291906119a5565b60405180910390f35b60025481565b7f000000000000000000000000000000000000000000000000000000000000000081565b60035481565b60015481565b7f000000000000000000000000000000000000000000000000000000000000000081565b6103826113ac565b6003600081548092919061039590611a3c565b9190505550600160008154809291906103ad90611a3c565b91905055508373ffffffffffffffffffffffffffffffffffffffff166323b872dd3330866040518463ffffffff1660e01b81526004016103ef93929190611a93565b600060405180830381600087803b15801561040957600080fd5b505af115801561041d573d6000803e3d6000fd5b505050506040518060c0016040528060035481526020018573ffffffffffffffffffffffffffffffffffffffff1681526020018481526020013373ffffffffffffffffffffffffffffffffffffffff168152602001600015158152602001828152506005600060035481526020019081526020016000206000820151816000015560208201518160010160006101000a81548173ffffffffffffffffffffffffffffffffffffffff021916908373ffffffffffffffffffffffffffffffffffffffff1602179055506040820151816002015560608201518160030160006101000a81548173ffffffffffffffffffffffffffffffffffffffff021916908373ffffffffffffffffffffffffffffffffffffffff16021790555060808201518160030160146101000a81548160ff02191690831515021790555060a082015181600401908161056b9190611ccc565b509050506105776113f2565b50505050565b60046020528060005260406000206000915090508060000154908060010160009054906101000a900473ffffffffffffffffffffffffffffffffffffffff16908060020154908060030154908060040160009054906101000a900473ffffffffffffffffffffffffffffffffffffffff16908060040160149054906101000a900460ff169080600501805461061190611af9565b80601f016020809104026020016040519081016040528092919081815260200182805461063d90611af9565b801561068a5780601f1061065f5761010080835404028352916020019161068a565b820191906000526020600020905b81548152906001019060200180831161066d57829003601f168201915b5050505050905087565b600060647f000000000000000000000000000000000000000000000000000000000000000060646106c59190611d9e565b836106d09190611dd2565b6106da9190611e43565b9050919050565b600073ffffffffffffffffffffffffffffffffffffffff166004600083815260200190815260200160002060040160009054906101000a900473ffffffffffffffffffffffffffffffffffffffff1673ffffffffffffffffffffffffffffffffffffffff1603610786576040517f08c379a000000000000000000000000000000000000000000000000000000000815260040161077d90611ec0565b60405180910390fd5b60006004600083815260200190815260200160002060040160006101000a81548173ffffffffffffffffffffffffffffffffffffffff021916908373ffffffffffffffffffffffffffffffffffffffff16021790555050565b6107e76113ac565b6000811180156107f957506001548111155b610838576040517f08c379a000000000000000000000000000000000000000000000000000000000815260040161082f90611f2c565b60405180910390fd5b60006004600083815260200190815260200160002090508060040160149054906101000a900460ff16156108a1576040517f08c379a000000000000000000000000000000000000000000000000000000000815260040161089890611f98565b60405180910390fd5b60006108b08260030154610694565b9050803410156108f5576040517f08c379a00000000000000000000000000000000000000000000000000000000081526004016108ec9061202a565b60405180910390fd5b8160040160009054906101000a900473ffffffffffffffffffffffffffffffffffffffff1673ffffffffffffffffffffffffffffffffffffffff166108fc83600301549081150290604051600060405180830381858888f19350505050158015610963573d6000803e3d6000fd5b507f000000000000000000000000000000000000000000000000000000000000000073ffffffffffffffffffffffffffffffffffffffff166108fc8360030154836109ae919061204a565b9081150290604051600060405180830381858888f193505050501580156109d9573d6000803e3d6000fd5b5060018260040160146101000a81548160ff0219169083151502179055508160010160009054906101000a900473ffffffffffffffffffffffffffffffffffffffff1673ffffffffffffffffffffffffffffffffffffffff166323b872dd303385600201546040518463ffffffff1660e01b8152600401610a5c93929190611a93565b600060405180830381600087803b158015610a7657600080fd5b505af1158015610a8a573d6000803e3d6000fd5b505050503373ffffffffffffffffffffffffffffffffffffffff168260040160009054906101000a900473ffffffffffffffffffffffffffffffffffffffff1673ffffffffffffffffffffffffffffffffffffffff168360010160009054906101000a900473ffffffffffffffffffffffffffffffffffffffff1673ffffffffffffffffffffffffffffffffffffffff167f8b4c9c8a607d67b321582dd8461041b1dc2ceeca70c8b7f37f8e02095cf2e76d8686600201548760030154604051610b569392919061207e565b60405180910390a45050610b686113f2565b50565b610b736113ac565b600081118015610b8557506003548111155b610bc4576040517f08c379a0000000000000000000000000000000000000000000000000000000008152600401610bbb90612101565b60405180910390fd5b60006005600083815260200190815260200160002090508060030160149054906101000a900460ff1615610c2d576040517f08c379a0000000000000000000000000000000000000000000000000000000008152600401610c249061216d565b60405180910390fd5b60005b8351811015610e87576000848281518110610c4e57610c4d61218d565b5b6020026020010151118015610c7f5750600254848281518110610c7457610c7361218d565b5b602002602001015111155b610cbe576040517f08c379a0000000000000000000000000000000000000000000000000000000008152600401610cb590612208565b60405180910390fd5b60046000858381518110610cd557610cd461218d565b5b6020026020010151815260200190815260200160002060040160149054906101000a900460ff1615610d3c576040517f08c379a0000000000000000000000000000000000000000000000000000000008152600401610d3390612274565b60405180910390fd5b60046000858381518110610d5357610d5261218d565b5b6020026020010151815260200190815260200160002060010160009054906101000a900473ffffffffffffffffffffffffffffffffffffffff1673ffffffffffffffffffffffffffffffffffffffff166323b872dd303360046000898781518110610dc157610dc061218d565b5b60200260200101518152602001908152602001600020600201546040518463ffffffff1660e01b8152600401610df993929190611a93565b600060405180830381600087803b158015610e1357600080fd5b505af1158015610e27573d6000803e3d6000fd5b50505050600160046000868481518110610e4457610e4361218d565b5b6020026020010151815260200190815260200160002060040160146101000a81548160ff0219169083151502179055508080610e7f90611a3c565b915050610c30565b508060010160009054906101000a900473ffffffffffffffffffffffffffffffffffffffff1673ffffffffffffffffffffffffffffffffffffffff166323b872dd303384600201546040518463ffffffff1660e01b8152600401610eed93929190611a93565b600060405180830381600087803b158015610f0757600080fd5b505af1158015610f1b573d6000803e3d6000fd5b5050505060018160030160146101000a81548160ff0219169083151502179055503373ffffffffffffffffffffffffffffffffffffffff168160010160009054906101000a900473ffffffffffffffffffffffffffffffffffffffff1673ffffffffffffffffffffffffffffffffffffffff167f1fff07fff5533fc011a36cdc42d18179460a2deba9cd93b0189ec45d661227c984846002015487604051610fc593929190612352565b60405180910390a350610fd66113f2565b5050565b610fe26113ac565b60008211611025576040517f08c379a000000000000000000000000000000000000000000000000000000000815260040161101c906123dc565b60405180910390fd5b6001600081548092919061103890611a3c565b91905055506002600081548092919061105090611a3c565b91905055508373ffffffffffffffffffffffffffffffffffffffff166323b872dd3330866040518463ffffffff1660e01b815260040161109293929190611a93565b600060405180830381600087803b1580156110ac57600080fd5b505af11580156110c0573d6000803e3d6000fd5b505050506040518060e0016040528060025481526020018573ffffffffffffffffffffffffffffffffffffffff1681526020018481526020018381526020013373ffffffffffffffffffffffffffffffffffffffff168152602001600015158152602001828152506004600060025481526020019081526020016000206000820151816000015560208201518160010160006101000a81548173ffffffffffffffffffffffffffffffffffffffff021916908373ffffffffffffffffffffffffffffffffffffffff160217905550604082015181600201556060820151816003015560808201518160040160006101000a81548173ffffffffffffffffffffffffffffffffffffffff021916908373ffffffffffffffffffffffffffffffffffffffff16021790555060a08201518160040160146101000a81548160ff02191690831515021790555060c082015181600501908161121e9190611ccc565b509050503373ffffffffffffffffffffffffffffffffffffffff168473ffffffffffffffffffffffffffffffffffffffff167f655a0cf9c8db81512be9a76dc1c5ae5380b8816ce6ad659cd61b715e2999d59a60025486866040516112859392919061207e565b60405180910390a36112956113f2565b50505050565b60056020528060005260406000206000915090508060000154908060010160009054906101000a900473ffffffffffffffffffffffffffffffffffffffff16908060020154908060030160009054906101000a900473ffffffffffffffffffffffffffffffffffffffff16908060030160149054906101000a900460ff169080600401805461132990611af9565b80601f016020809104026020016040519081016040528092919081815260200182805461135590611af9565b80156113a25780601f10611377576101008083540402835291602001916113a2565b820191906000526020600020905b81548152906001019060200180831161138557829003601f168201915b5050505050905086565b6002600054036113e8576040517f3ee5aeb500000000000000000000000000000000000000000000000000000000815260040160405180910390fd5b6002600081905550565b6001600081905550565b6000819050919050565b61140f816113fc565b82525050565b600060208201905061142a6000830184611406565b92915050565b600073ffffffffffffffffffffffffffffffffffffffff82169050919050565b600061145b82611430565b9050919050565b61146b81611450565b82525050565b60006020820190506114866000830184611462565b92915050565b6000604051905090565b600080fd5b600080fd5b60006114ab82611430565b9050919050565b60006114bd826114a0565b9050919050565b6114cd816114b2565b81146114d857600080fd5b50565b6000813590506114ea816114c4565b92915050565b6114f9816113fc565b811461150457600080fd5b50565b600081359050611516816114f0565b92915050565b600080fd5b600080fd5b6000601f19601f8301169050919050565b7f4e487b7100000000000000000000000000000000000000000000000000000000600052604160045260246000fd5b61156f82611526565b810181811067ffffffffffffffff8211171561158e5761158d611537565b5b80604052505050565b60006115a161148c565b90506115ad8282611566565b919050565b600067ffffffffffffffff8211156115cd576115cc611537565b5b6115d682611526565b9050602081019050919050565b82818337600083830152505050565b6000611605611600846115b2565b611597565b90508281526020810184848401111561162157611620611521565b5b61162c8482856115e3565b509392505050565b600082601f8301126116495761164861151c565b5b81356116598482602086016115f2565b91505092915050565b6000806000806080858703121561167c5761167b611496565b5b600061168a878288016114db565b945050602061169b87828801611507565b93505060406116ac87828801611507565b925050606085013567ffffffffffffffff8111156116cd576116cc61149b565b5b6116d987828801611634565b91505092959194509250565b6000602082840312156116fb576116fa611496565b5b600061170984828501611507565b91505092915050565b6000819050919050565b600061173761173261172d84611430565b611712565b611430565b9050919050565b60006117498261171c565b9050919050565b600061175b8261173e565b9050919050565b61176b81611750565b82525050565b60008115159050919050565b61178681611771565b82525050565b600081519050919050565b600082825260208201905092915050565b60005b838110156117c65780820151818401526020810190506117ab565b60008484015250505050565b60006117dd8261178c565b6117e78185611797565b93506117f78185602086016117a8565b61180081611526565b840191505092915050565b600060e082019050611820600083018a611406565b61182d6020830189611762565b61183a6040830188611406565b6118476060830187611406565b6118546080830186611462565b61186160a083018561177d565b81810360c083015261187381846117d2565b905098975050505050505050565b600067ffffffffffffffff82111561189c5761189b611537565b5b602082029050602081019050919050565b600080fd5b60006118c56118c084611881565b611597565b905080838252602082019050602084028301858111156118e8576118e76118ad565b5b835b8181101561191157806118fd8882611507565b8452602084019350506020810190506118ea565b5050509392505050565b600082601f8301126119305761192f61151c565b5b81356119408482602086016118b2565b91505092915050565b600080604083850312156119605761195f611496565b5b600083013567ffffffffffffffff81111561197e5761197d61149b565b5b61198a8582860161191b565b925050602061199b85828601611507565b9150509250929050565b600060c0820190506119ba6000830189611406565b6119c76020830188611762565b6119d46040830187611406565b6119e16060830186611462565b6119ee608083018561177d565b81810360a0830152611a0081846117d2565b9050979650505050505050565b7f4e487b7100000000000000000000000000000000000000000000000000000000600052601160045260246000fd5b6000611a47826113fc565b91507fffffffffffffffffffffffffffffffffffffffffffffffffffffffffffffffff8203611a7957611a78611a0d565b5b600182019050919050565b611a8d816114a0565b82525050565b6000606082019050611aa86000830186611a84565b611ab56020830185611a84565b611ac26040830184611406565b949350505050565b7f4e487b7100000000000000000000000000000000000000000000000000000000600052602260045260246000fd5b60006002820490506001821680611b1157607f821691505b602082108103611b2457611b23611aca565b5b50919050565b60008190508160005260206000209050919050565b60006020601f8301049050919050565b600082821b905092915050565b600060088302611b8c7fffffffffffffffffffffffffffffffffffffffffffffffffffffffffffffffff82611b4f565b611b968683611b4f565b95508019841693508086168417925050509392505050565b6000611bc9611bc4611bbf846113fc565b611712565b6113fc565b9050919050565b6000819050919050565b611be383611bae565b611bf7611bef82611bd0565b848454611b5c565b825550505050565b600090565b611c0c611bff565b611c17818484611bda565b505050565b5b81811015611c3b57611c30600082611c04565b600181019050611c1d565b5050565b601f821115611c8057611c5181611b2a565b611c5a84611b3f565b81016020851015611c69578190505b611c7d611c7585611b3f565b830182611c1c565b50505b505050565b600082821c905092915050565b6000611ca360001984600802611c85565b1980831691505092915050565b6000611cbc8383611c92565b9150826002028217905092915050565b611cd58261178c565b67ffffffffffffffff811115611cee57611ced611537565b5b611cf88254611af9565b611d03828285611c3f565b600060209050601f831160018114611d365760008415611d24578287015190505b611d2e8582611cb0565b865550611d96565b601f198416611d4486611b2a565b60005b82811015611d6c57848901518255600182019150602085019450602081019050611d47565b86831015611d895784890151611d85601f891682611c92565b8355505b6001600288020188555050505b505050505050565b6000611da9826113fc565b9150611db4836113fc565b9250828201905080821115611dcc57611dcb611a0d565b5b92915050565b6000611ddd826113fc565b9150611de8836113fc565b9250828202611df6816113fc565b91508282048414831517611e0d57611e0c611a0d565b5b5092915050565b7f4e487b7100000000000000000000000000000000000000000000000000000000600052601260045260246000fd5b6000611e4e826113fc565b9150611e59836113fc565b925082611e6957611e68611e14565b5b828204905092915050565b7f53656c6c657220697320616c72656164792073657420746f207a65726f000000600082015250565b6000611eaa601d83611797565b9150611eb582611e74565b602082019050919050565b60006020820190508181036000830152611ed981611e9d565b9050919050565b7f4974656d20646f65736e27742065786973740000000000000000000000000000600082015250565b6000611f16601283611797565b9150611f2182611ee0565b602082019050919050565b60006020820190508181036000830152611f4581611f09565b9050919050565b7f4974656d20616c726561647920736f6c64000000000000000000000000000000600082015250565b6000611f82601183611797565b9150611f8d82611f4c565b602082019050919050565b60006020820190508181036000830152611fb181611f75565b9050919050565b7f4e6f7420656e6f75676820657468657220746f20636f766572206974656d207060008201527f7269636520616e64206d61726b65742066656500000000000000000000000000602082015250565b6000612014603383611797565b915061201f82611fb8565b604082019050919050565b6000602082019050818103600083015261204381612007565b9050919050565b6000612055826113fc565b9150612060836113fc565b925082820390508181111561207857612077611a0d565b5b92915050565b60006060820190506120936000830186611406565b6120a06020830185611406565b6120ad6040830184611406565b949350505050565b7f5370656369616c206974656d20646f65736e2774206578697374000000000000600082015250565b60006120eb601a83611797565b91506120f6826120b5565b602082019050919050565b6000602082019050818103600083015261211a816120de565b9050919050565b7f5370656369616c206974656d20616c72656164792065786368616e6765640000600082015250565b6000612157601e83611797565b915061216282612121565b602082019050919050565b600060208201905081810360008301526121868161214a565b9050919050565b7f4e487b7100000000000000000000000000000000000000000000000000000000600052603260045260246000fd5b7f4e6f726d616c206974656d20646f65736e277420657869737400000000000000600082015250565b60006121f2601983611797565b91506121fd826121bc565b602082019050919050565b60006020820190508181036000830152612221816121e5565b9050919050565b7f4e6f726d616c206974656d20616c726561647920736f6c640000000000000000600082015250565b600061225e601883611797565b915061226982612228565b602082019050919050565b6000602082019050818103600083015261228d81612251565b9050919050565b600081519050919050565b600082825260208201905092915050565b6000819050602082019050919050565b6122c9816113fc565b82525050565b60006122db83836122c0565b60208301905092915050565b6000602082019050919050565b60006122ff82612294565b612309818561229f565b9350612314836122b0565b8060005b8381101561234557815161232c88826122cf565b9750612337836122e7565b925050600181019050612318565b5085935050505092915050565b60006060820190506123676000830186611406565b6123746020830185611406565b818103604083015261238681846122f4565b9050949350505050565b7f5072696365206d7573742062652067726561746572207468616e207a65726f00600082015250565b60006123c6601f83611797565b91506123d182612390565b602082019050919050565b600060208201905081810360008301526123f5816123b9565b905091905056fea264697066735822122097092484db85aff1c6d1f658da086f66ee95ae3f6ea35d0c90f4e545b76cd1e864736f6c63430008140033",
  "linkReferences": {},
  "deployedLinkReferences": {}
}